{
  "_format": "hh3-artifact-1",
  "contractName": "SimpleRealEstate",
  "sourceName": "contracts/SimpleRealEstate.sol",
  "abi": [
    {
      "anonymous": false,
      "inputs": [
        {
          "indexed": true,
          "internalType": "uint256",
          "name": "id",
          "type": "uint256"
        },
        {
          "indexed": true,
          "internalType": "address",
          "name": "seller",
          "type": "address"
        },
        {
          "indexed": false,
          "internalType": "uint256",
          "name": "price",
          "type": "uint256"
        }
      ],
      "name": "Listed",
      "type": "event"
    },
    {
      "anonymous": false,
      "inputs": [
        {
          "indexed": true,
          "internalType": "uint256",
          "name": "id",
          "type": "uint256"
        },
        {
          "indexed": true,
          "internalType": "address",
          "name": "buyer",
          "type": "address"
        },
        {
          "indexed": false,
          "internalType": "uint256",
          "name": "price",
          "type": "uint256"
        }
      ],
      "name": "Purchased",
      "type": "event"
    },
    {
      "inputs": [
        {
          "internalType": "uint256",
          "name": "id",
          "type": "uint256"
        }
      ],
      "name": "buy",
      "outputs": [],
      "stateMutability": "payable",
      "type": "function"
    },
    {
      "inputs": [
        {
          "internalType": "uint256",
          "name": "id",
          "type": "uint256"
        }
      ],
      "name": "get",
      "outputs": [
        {
          "internalType": "address",
          "name": "seller",
          "type": "address"
        },
        {
          "internalType": "uint256",
          "name": "price",
          "type": "uint256"
        },
        {
          "internalType": "string",
          "name": "image",
          "type": "string"
        },
        {
          "internalType": "string",
          "name": "title",
          "type": "string"
        },
        {
          "internalType": "string",
          "name": "location_",
          "type": "string"
        },
        {
          "internalType": "bool",
          "name": "sold",
          "type": "bool"
        },
        {
          "internalType": "address",
          "name": "buyer",
          "type": "address"
        }
      ],
      "stateMutability": "view",
      "type": "function"
    },
    {
      "inputs": [
        {
          "internalType": "uint256",
          "name": "priceWei",
          "type": "uint256"
        },
        {
          "internalType": "string",
          "name": "image",
          "type": "string"
        },
        {
          "internalType": "string",
          "name": "title",
          "type": "string"
        },
        {
          "internalType": "string",
          "name": "location_",
          "type": "string"
        }
      ],
      "name": "list",
      "outputs": [
        {
          "internalType": "uint256",
          "name": "id",
          "type": "uint256"
        }
      ],
      "stateMutability": "nonpayable",
      "type": "function"
    },
    {
      "inputs": [],
      "name": "total",
      "outputs": [
        {
          "internalType": "uint256",
          "name": "",
          "type": "uint256"
        }
      ],
      "stateMutability": "view",
      "type": "function"
    }
  ],
  "bytecode": "0x6080604052348015600e575f5ffd5b50610a098061001c5f395ff3fe60806040526004361061003e575f3560e01c80632ddbd13a146100425780639507d39a14610064578063c41f363c14610096578063d96a094a146100b5575b5f5ffd5b34801561004d575f5ffd5b505f545b6040519081526020015b60405180910390f35b34801561006f575f5ffd5b5061008361007e3660046106a4565b6100ca565b60405161005b97969594939291906106e9565b3480156100a1575f5ffd5b506100516100b036600461079f565b6102e8565b6100c86100c33660046106a4565b610515565b005b5f5f60608060605f5f5f5f89815481106100e6576100e6610847565b5f91825260209091206006909102018054600182015460058301546002840180549495506001600160a01b0393841694929390926003870192600488019260ff8216926101009092041690859061013c9061085b565b80601f01602080910402602001604051908101604052809291908181526020018280546101689061085b565b80156101b35780601f1061018a576101008083540402835291602001916101b3565b820191905f5260205f20905b81548152906001019060200180831161019657829003601f168201915b505050505094508380546101c69061085b565b80601f01602080910402602001604051908101604052809291908181526020018280546101f29061085b565b801561023d5780601f106102145761010080835404028352916020019161023d565b820191905f5260205f20905b81548152906001019060200180831161022057829003601f168201915b505050505093508280546102509061085b565b80601f016020809104026020016040519081016040528092919081815260200182805461027c9061085b565b80156102c75780601f1061029e576101008083540402835291602001916102c7565b820191905f5260205f20905b8154815290600101906020018083116102aa57829003601f168201915b50505050509250975097509750975097509750975050919395979092949650565b5f5f88116103275760405162461bcd60e51b8152602060048201526007602482015266070726963653d360cc1b60448201526064015b60405180910390fd5b6040805160e08101825233815260208082018b90528251601f8a0182900482028101820184528981525f938301918b908b90819084018382808284375f92019190915250505090825250604080516020601f8a01819004810282018101909252888152918101919089908990819084018382808284375f92019190915250505090825250604080516020601f8801819004810282018101909252868152918101919087908790819084018382808284375f9201829052509385525050506020808301829052604092830182905284546001808201875595835291819020845160069093020180546001600160a01b0319166001600160a01b0390931692909217825583015193810193909355810151909190600282019061044890826108f3565b506060820151600382019061045d90826108f3565b506080820151600482019061047290826108f3565b5060a08201516005909101805460c0909301516001600160a01b031661010002610100600160a81b0319921515929092166001600160a81b0319909316929092171790555f546104c4906001906109ae565b9050336001600160a01b0316817f50955776c5778c3b7d968d86d8c51fb6b29a7a74c20866b533268e209fc083438a60405161050291815260200190565b60405180910390a3979650505050505050565b5f5f828154811061052857610528610847565b5f9182526020909120600690910201600581015490915060ff16156105785760405162461bcd60e51b815260040161031e906020808252600490820152631cdbdb1960e21b604082015260600190565b806001015434146105bc5760405162461bcd60e51b815260206004820152600e60248201526d0e0e4d2c6ca40dad2e6dac2e8c6d60931b604482015260640161031e565b60058101805460016001600160a81b031990911661010033021717905580546040515f916001600160a01b03169034908381818185875af1925050503d805f8114610622576040519150601f19603f3d011682016040523d82523d5f602084013e610627565b606091505b50509050806106685760405162461bcd60e51b815260206004820152600d60248201526c1c185e5bdd5d0819985a5b1959609a1b604482015260640161031e565b604051348152339084907ffd51b2c9f55c42d2b72ac683526519563be02fc0107f034ff430c05185ff1b669060200160405180910390a3505050565b5f602082840312156106b4575f5ffd5b5035919050565b5f81518084528060208401602086015e5f602082860101526020601f19601f83011685010191505092915050565b60018060a01b038816815286602082015260e060408201525f61070f60e08301886106bb565b828103606084015261072181886106bb565b9050828103608084015261073581876106bb565b94151560a084015250506001600160a01b039190911660c09091015295945050505050565b5f5f83601f84011261076a575f5ffd5b50813567ffffffffffffffff811115610781575f5ffd5b602083019150836020828501011115610798575f5ffd5b9250929050565b5f5f5f5f5f5f5f6080888a0312156107b5575f5ffd5b87359650602088013567ffffffffffffffff8111156107d2575f5ffd5b6107de8a828b0161075a565b909750955050604088013567ffffffffffffffff8111156107fd575f5ffd5b6108098a828b0161075a565b909550935050606088013567ffffffffffffffff811115610828575f5ffd5b6108348a828b0161075a565b989b979a50959850939692959293505050565b634e487b7160e01b5f52603260045260245ffd5b600181811c9082168061086f57607f821691505b60208210810361088d57634e487b7160e01b5f52602260045260245ffd5b50919050565b634e487b7160e01b5f52604160045260245ffd5b601f8211156108ee57805f5260205f20601f840160051c810160208510156108cc5750805b601f840160051c820191505b818110156108eb575f81556001016108d8565b50505b505050565b815167ffffffffffffffff81111561090d5761090d610893565b6109218161091b845461085b565b846108a7565b6020601f821160018114610953575f831561093c5750848201515b5f19600385901b1c1916600184901b1784556108eb565b5f84815260208120601f198516915b828110156109825787850151825560209485019460019092019101610962565b508482101561099f57868401515f19600387901b60f8161c191681555b50505050600190811b01905550565b818103818111156109cd57634e487b7160e01b5f52601160045260245ffd5b9291505056fea26469706673582212200308fc6da80d5356e065df1db6ef3c5ec2937b3a17e96f6a01be47117c55651c64736f6c634300081c0033",
  "linkReferences": {},
  "deployedLinkReferences": {},
  "immutableReferences": {},
  "inputSourceName": "project/contracts/SimpleRealEstate.sol",
  "buildInfoId": "solc-0_8_28-f27b268f7477b64e70a10e7e8e26755a0ee3920e"
}